:02000000F229E3
:10000800FF00030E83018316EC000A08ED008A0145
:100018008B1C122801308312AC008B100B16831630
:0E0028006D088A006C0E8300FF0E7F0E09002B
:0A00360000000000000000000800B8
:100040001D3083120313FC009130FD00FD0B2628A8
:06005000FC0B262808004D
:10005600423083120313FD00FD0B2F280000080019
:1000660083120317941B392886123A288616141B06
:100076003E2806123F280616941A4328861144285D
:100086008615141A482806114928061583160313DF
:1000960068185028831287165228831287128614EE
:1000A6001B208610031794195A2886125B28861679
:1000B60014195F28061260280616941864288611FB
:1000C600652886151418692806116A2806158316E8
:1000D60003136818712883128716732883128712F0
:1000E60086141B2086108316681C7B2820207C28FB
:0400F6002B200800B3
:0E00FA001D3083120313FD00FD0B812808004A
:100108008316031398188A2800008428831203177B
:0801180013080313990008000D
:0E012000831603135F088A005E088200080041
:10012E0083160313681083120317130894003320E9
:06013E008316681408009E
:10014400831203139F01C0309F043F09F00070081D
:1001540083169F051F179F176E08F000F00D70108F
:10016400F00D7010F00D7010700883129F041F14AE
:100174007D201F151F1DC0280000BC281F101E084D
:10018400F100F00183161E08F0040030F1040800A9
:10019400831603178C1CD0280000CA2803136E088A
:1001A400831203178D00831603136F08831203173A
:1001B4008C0083168C130C150B08F0008B13553030
:1001C4008D00AA308D008C14F01BEA288B13EB28C9
:0601D4008B170C1108005E
:1001DA00831203179001831603136E088400000824
:1001EA00EF006F08003A031909296F0883120317F1
:1001FA00930084200317900A1008831603136E07CE
:0A020A0084000008EF00F628080049
:10021400831603136E08831203178D0083168C1341
:0A0224000C1483120C08F00008000F
:10022E008316031386108712061186110612861284
:10023E00831286108712861206128611061120204E
:10024E00202020208615061586141B2086102020BF
:10025E0086141B208610202086141B20861020203A
:10026E00061186141B208610202086141B20861053
:10027E008611861686141B208610202086120615DF
:10028E0086141B208610061186141B208610202033
:10029E0086141B208610061586141B20861020201F
:1002AE00061186141B208610861606168615061550
:0E02BE0086141B20861020208316681408006A
:1002CC00782980308312031790008B29C03090005E
:1002DC008B29943090008B29D43090008B2980305E
:1002EC0090008B29831203171008013A0319672910
:1002FC001008023A03196C291008033A03196F29E4
:10030C001008043A0319722975291103F00010081A
:10031C00F007700890007008940033208316681062
:10032C00EE016E08831203171207840000080319EC
:10033C00AB29831603136E0883120317120784006C
:10034C00000893009720EE0A97298316031368146C
:02035C00080097
:10035E00153083120313FB004B30FC00BE30FD0042
:10036E00FD0BB729FC0BB729FB0BB72900000800C2
:10037E0090208A110A128000840ADE0A0319DF0A0D
:08038E00F003031DBF29080064
:1003960083160313981690308312980083168717D6
:1003A600071383128C1EDA291A08F000D4290800D4
:1003B600FF3083160313E900FF30EA00FF30EB003D
:1003C600FF3083129F01C0309F043F09F000700880
:0E03D60083169F051F179F1783121F14080020
:1003E400EE2467308316031399001815CB21FF30D0
:1003F40083168500831285010730831689008312D2
:1004040089010130831686008312860183168801D0
:10041400831288018F308316870083128701831625
:10042400E001E101E601E701E401E501E201E301A4
:10043400DC01DD01D201D301D001D101CE01CF0114
:10044400D401D501DA01DB01DB211721013083124C
:100454000317940033200C300317940033200F301B
:100464008316EE005230EF00CA201F300313EE0053
:100474003E30EF00CA2001178B170B160B148B109C
:1004840083160F300313EE000A217008831603133A
:10049400D800D9011F30EE000A2170088316031317
:1004A400D600D701EE01A2207008E0007108E10037
:1004B4000130EE00A2207008E6007108E700023067
:1004C400EE00A2207008E4007108E5000330EE009D
:1004D400A2207008E2007108E3000430EE00A220BC
:1004E4007008D2007108D3000530EE00A220700815
:1004F400D0007108D1000630EE00A2207008CE00B2
:100504007108CF000730EE00A2207008D4007108F3
:10051400D5003330DA000130DB000B1D922A0B11B9
:100524008312851A082B0718082B8718082B07191C
:10053400082B8719082B831659086102031DA42A66
:10054400580860020318082B61085702031DAC2ADF
:10055400600856020318082B59086702031DB42AC1
:10056400580866020318082B67085702031DBC2AA3
:10057400660856020318082B59086502031DC42A8D
:10058400580864020318082B65085702031DCC2A77
:10059400640856020318082B59086302031DD42A61
:1005A400580862020318082B63085702031DDC2A4B
:1005B400620856020318082B53085B02031DE42A41
:1005C40052085A020318082B51085B02031DEC2A37
:1005D40050085A020318082B4F085B02031DF42A23
:1005E4004E085A020318082B55085B02031DFC2A07
:1005F40054085A020318082B013083120317900081
:1006040003309100633092006621342C8312071C5E
:100614003A2B87183A2B07193A2B87193A2B0130B2
:100624000317940033200C30031794003320013057
:100634000317900004309100563092006621023076
:10064400831203179000053091004C30920066210C
:1006540083120716FF308800AF218801071201308A
:100664000317940033200C30031794003320342CE8
:10067400871C6B2B07186B2B07196B2B87196B2B9C
:1006840001300317940033200C30031794003320F7
:1006940001300317900004309100A03092006621CD
:1006A400023083120317900005309100C430920089
:1006B4006621831207163F308800AF218801071294
:1006C40001300317940033200C30031794003320B7
:1006D400342C071D9C2B87189C2B07189C2B8719DF
:1006E4009C2B01300317940033200C300317940023
:1006F400332001300317900004309100B73092008A
:100704006621023083120317900005309100AD304A
:1007140092006621831207163F308800AF218801BA
:10072400071201300317940033200C300317940090
:100734003320342C871DCD2B8718CD2B0719CD2BB7
:100744000718CD2B01300317940033200C30031706
:10075400940033200130031790000430910040309E
:100764009200662102308312031790000530910035
:100774002D3092006621831207163F308800AF2186
:100784008801071201300317940033200C3003173B
:1007940094003320342C003083166102031DD42BC3
:1007A4005230600203182F2C6108003C031DDC2B1F
:1007B40060083E3C03182F2C00306702031DE42B15
:1007C4005230660203182F2C6708003C031DEC2BE3
:1007D40066083E3C03182F2C00306502031DF42BE1
:1007E4005230640203182F2C6508003C031DFC2BB7
:1007F40064083E3C03182F2C00306302031D042CB4
:100804005230620203182F2C6308003C031D0C2C89
:1008140062083E3C03182F2C53085B02031D142C62
:1008240052085A0203182F2C51085B02031D1C2C7A
:1008340050085A0203182F2C4F085B02031D242C66
:100844004E085A0203182F2C55085B02031D2C2C4A
:1008540054085A0203182F2C342C83120617071637
:10086400AF21061383122C08013A031D692C0130B1
:100874000317940033200C300317940033202C0802
:10088400013A031D692C01300317900004309100D4
:100894002030920066210D308312031793008420C8
:1008A40037308316EE00ED200D30831203179300CA
:1008B4008420AF210618682CAC01071201300317FD
:1008C400940033200C30031794003320412C422A27
:0208D4006A2C8C
:1009DC0020308400503083120313F00070308316E3
:1009EC00DE000430DF00BF21A03084002E308312E3
:1009FC000313F000C0308316DE000430DF00BF218B
:020A0C000800E0
:1008E00055345234473445344E344334453421343E
:0808F0002134213421340034CD
:0208F8000034CA
:1008FA004334483441344D3442345234453420343C
:04090A00343400344D
:10090E0055347234673465346E3463346534003470
:02091E000F3494
:1009200041345034503445344C342034443445340C
:0809300020344C344134003442
:100938004334483441344D344234523445342034FD
:040948003134003412
:10094C0041345034503445344C34203444344534E0
:0A095C0020344C34413420340034C0
:10096600453454344134543420344E344F345234A4
:0A0976004D3441344C344534003454
:1009800041345034503445344C34203444344534AC
:0A09900020344C344134203400348C
:10099A004334483441344D3442345234453420349B
:0409AA0033340034AE
:1009AE0041345034503445344C342034443445347E
:0A09BE0020344C344134203400345E
:1009C8004334483441344D3442345234453420346D
:0409D8003234003481
:02400E004A2F37
:00000001FF
